:020000040800F2
:1000000000000220CD3C00089D090008A30900085B
:10001000A9090008AF090008B509000800000000A0
:10002000000000000000000000000000BB09000804
:10003000C909000800000000D7090008E509000808
:100040001D3D00081D3D00081D3D00081D3D000828
:100050001D3D00081D3D00081D3D00081D3D000818
:100060001D3D00081D3D00081D3D00081D3D000808
:100070001D3D00081D3D00081D3D00081D3D0008F8
:100080001D3D00081D3D00081D3D00081D3D0008E8
:100090001D3D00081D3D00081D3D00081D3D0008D8
:1000A0001D3D00081D3D00081D3D00081D3D0008C8
:1000B0001D3D00081D3D00081D3D00081D3D0008B8
:1000C0001D3D00081D3D00081D3D00081D3D0008A8
:1000D0001D3D00081D3D00081D3D0008F1090008F8
:1000E0001D3D00081D3D00081D3D00081D3D000888
:1000F0001D3D00081D3D00081D3D00081D3D000878
:100100001D3D00081D3D00081D3D00081D3D000867
:100110001D3D00081D3D00081D3D00081D3D000857
:100120001D3D00081D3D00081D3D00081D3D000847
:100130001D3D000800000000000000001D3D0008FB
:100140001D3D00081D3D00081D3D00081D3D000827
:100150001D3D00081D3D00081D3D00081D3D000817
:100160001D3D00081D3D00081D3D00081D3D000807
:100170001D3D00081D3D00080000000000000000BB
:080180001D3D00081D3D0008B3
:1001900010B5054C237833B9044B13B10448AFF3C1
:1001A00000800123237010BD7000002000000000BB
:1001B000744B000808B5034B1BB103490348AFF368
:1001C000008008BD0000000074000020744B00088F
:1001D00001F0FF01102A2BDB10F0070F08D010F8F8
:1001E000013B013A8B422DD010F0070F42B3F6D1FC
:1001F000F0B441EA012141EA014122F007047FF015
:1002000000070023F0E80256083C85EA010586EA6B
:10021000010685FA47F5A3FA87F586FA47F6A5FAA7
:1002200087F68EB9EED1F0BC01F0FF0102F00702B3
:1002300032B110F8013B013A83EA010313B1F8D15E
:100240000020704701387047002D06BF354603383F
:10025000073815F0010F07D1013015F4807F02BF78
:10026000013015F4C03F0130F0BC0138704700BFC9
:1002700053B94AB9002908BF00281CBF4FF0FF310D
:100280004FF0FF3000F07AB9ADF1080C6DE904CE03
:1002900000F006F8DDF804E0DDE9022304B0704761
:1002A0002DE9F0478C460D460446089E002B51D19F
:1002B0008A4217466DD9B2FA82FEBEF1000F0BD00A
:1002C000CEF1200C01FA0EF520FA0CFC02FA0EF722
:1002D0004CEA050C00FA0EF44FEA174A250CBCFB59
:1002E000FAF81FFA87F90AFB18CC45EA0C4508FB17
:1002F00009F3AB420AD9ED1908F1FF3280F02381EE
:10030000AB4240F22081A8F102083D44ED1AA4B2AC
:10031000B5FBFAF00AFB105544EA054400FB09F965
:10032000A14509D9E41900F1FF3380F00A81A14504
:1003300040F2078102383C44A4EB090440EA08403B
:100340000021002E61D024FA0EF400233460736083
:10035000BDE8F0878B4207D9002E54D0002186E8F3
:1003600021000846BDE8F087B3FA83F1002940F088
:100370008E80AB4202D3824200F2FA80841A65EB8F
:1003800003050120AC46002E3FD086E81010BDE8E2
:10039000F08712B90127B7FBF2F7B7FA87FEBEF173
:1003A000000F34D1EB1B3A0C1FFA87FC0121B3FB81
:1003B000F2F8250C02FB183345EA03450CFB08F361
:1003C000AB4207D9ED1908F1FF3002D2AB4200F27F
:1003D000D1808046ED1AA3B2B5FBF2F002FB1055B6
:1003E00043EA05440CFB00FCA44507D9E41900F1DD
:1003F000FF3302D2A44500F2B8801846A4EB0C04E7
:1004000040EA08409DE731463046BDE8F087CEF12E
:10041000200405FA0EF307FA0EF720FA04F83A0C56
:1004200025FA04F448EA0308B4FBF2F14FEA184550
:1004300002FB11441FFA87FC45EA044501FB0CF35B
:10044000AB4200FA0EF409D9ED1901F1FF3080F04A
:100450008A80AB4240F2878002393D44EB1A1FFA92
:1004600088F5B3FBF2F002FB103345EA034500FBCD
:100470000CF3AB4207D9ED1900F1FF386FD2AB4254
:100480006DD902383D44EB1A40EA01418FE7C1F1D2
:10049000200722FA07F88B4005FA01F448EA030323
:1004A00020FA07FE4FEA134CFD404EEA040EB5FB5E
:1004B000FCF94FEA1E440CFB19551FFA83F844EA75
:1004C000054509FB08F4AC4202FA01F200FA01FA10
:1004D00008D9ED1809F1FF3043D2AC4241D9A9F156
:1004E00002091D442D1B1FFA8EFEB5FBFCF00CFB10
:1004F00010554EEA054400FB08F8A04507D9E4185A
:1005000000F1FF3529D2A04527D902381C4440EA22
:100510000940A4EB0804A0FB02894C45C6464D46A1
:1005200015D312D056B1BAEB0E0364EB050404FAEE
:1005300007F7CB401F43CC40376074600021BDE813
:10054000F0871846F8E69046E0E6C245EAD2B8EBF6
:10055000020E69EB03050138E4E72846D7E7404679
:1005600091E78146BEE7014678E702383C4445E71B
:10057000084608E7A8F102083D442BE7704700BF92
:1005800080B584B000AF3B4600221A605A609A6082
:10059000DA60214B214A1A601F4B4FF480325A60B7
:1005A0001D4B00229A601C4B00221A611A4B00223C
:1005B0001A76194B002283F82020174B0022DA62AA
:1005C000154B174A9A62144B0022DA60124B012233
:1005D000DA61114B002283F830200F4B01225A615F
:1005E0000D4800F08FFC0346002B01D000F0AAF963
:1005F00004233B6001237B600023BB603B4619461C
:10060000054800F0C3FC0346002B01D000F09AF926
:1006100000BF1037BD4680BD98000020002001407B
:100620000100000F80B58AB000AF786007F11403B5
:1006300000221A605A609A60DA601A617B681B684F
:10064000174A934227D100233B61164A154B5B6C36
:1006500043F480735364134B5B6C03F480733B610E
:100660003B690023FB600F4A0E4B1B6B43F00103F9
:1006700013630C4B1B6B03F00103FB60FB6810233F
:100680007B610323BB610023FB6107F1140319465F
:10069000054801F03DF800BF2837BD4680BD00BFCA
:1006A00000200140003802400000024080B58AB0BE
:1006B00000AF07F1140300221A605A609A60DA60F2
:1006C0001A6100233B61354A344B1B6B43F08003B6
:1006D0001363324B1B6B03F080033B613B690023C8
:1006E000FB602E4A2D4B1B6B43F0010313632B4B16
:1006F0001B6B03F00103FB60FB680023BB60274A10
:10070000264B1B6B43F002031363244B1B6B03F05C
:100710000203BB60BB6800237B60204A1F4B1B6B3E
:1007200043F0040313631D4B1B6B03F004037B6056
:100730007B68002207211A4801F084F923237B619A
:100740000023BB610023FB6107F114031946154820
:1007500000F0DEFF07237B610123BB610023FB6107
:1007600000233B6207F1140319460D4800F0D0FF47
:100770004FF440637B610223BB610023FB610323D1
:100780003B6208237B6207F114031946064800F018
:10079000BFFF00BF2837BD4680BD00BF0038024004
:1007A00000040240000002400008024080B582B010
:1007B00000AF00F013FB00F025F8FFF777FF00F023
:1007C000CDF9FFF7DDFE00F097FA00F085F804217F
:1007D000084801F063FE01220749084802F006FDBF
:1007E0006123FB71064803F0CDFA4FF47A7000F0F4
:1007F00067FBF7E7E4000020E00000202C01002068
:100800008C4B000880B594B000AF07F12003302274
:100810000021184603F0AEFA07F10C0300221A601B
:100820005A609A60DA601A610023BB60284A284B3C
:100830001B6C43F080531364254B1B6C03F08053F7
:10084000BB60BB6800237B60224A224B1B6843F4D9
:10085000804313601F4B1B6803F480437B607B68FD
:1008600001233B624FF480337B620223BB634FF46E
:100870008003FB6304233B64A8237B640223BB64E3
:100880000423FB6407F12003184601F0F5F8034642
:10089000002B01D000F056F80F23FB6002233B61D0
:1008A00000237B614FF4A053BB614FF48053FB6185
:1008B00007F10C030521184601F056FB0346002BF7
:1008C00001D000F03FF800BF5037BD4680BD00BFEB
:1008D000003802400070004080B500AF00220021C7
:1008E000272000F04CFE272000F065FE00BF80BDF1
:1008F00080B582B000AF78607B681B680E4A934277
:1009000016D101220D490E4802F070FC0A23012283
:100910000A490B4802F0D9FB0A230122074908487B
:1009200002F0D3FB0A2301220449054802F0CDFB63
:1009300000BF0837BD4680BD00480040E0000020F1
:100940002C01002080B400AF72B6FEE780B483B003
:1009500000AF00237B60104A0F4B5B6C43F4804375
:1009600053640D4B5B6C03F480437B607B68002316
:100970003B60094A084B1B6C43F080531364064BE1
:100980001B6C03F080533B603B6800BF0C37BD46D7
:100990005DF8047B704700BF0038024080B400AFB0
:1009A000FEE780B400AFFEE780B400AFFEE780B49E
:1009B00000AFFEE780B400AFFEE780B400AF00BF39
:1009C000BD465DF8047B704780B400AF00BFBD46F4
:1009D0005DF8047B704780B400AF00BFBD465DF892
:1009E000047B704780B500AF00F04AFA00BF80BDBD
:1009F00080B500AF024802F029FC00BF80BD00BFF7
:100A00002C01002090B587B000AFF860B9607A6023
:100A100000237B610AE0BC68631CBB60AFF300800D
:100A20000346DBB223707B6901337B617A697B68A3
:100A30009A42F0DB7B6818461C37BD4690BD80B5F6
:100A400086B000AFF860B9607A6000237B6109E08E
:100A5000BB685A1CBA601B781846AFF300807B69EC
:100A600001337B617A697B689A42F1DB7B681846C7
:100A70001837BD4680BD000080B584B000AF7860F7
:100A8000114B1B68002B02D10F4B104A1A600E4B02
:100A90001B68FB600C4B1A687B6813446A469342E0
:100AA00007D903F03DF902460C2313604FF0FF33E2
:100AB00006E0054B1A687B681344034A1360FB6821
:100AC00018461037BD4680BD8C00002078010020FC
:100AD00080B483B000AF78604FF0FF3318460C3716
:100AE000BD465DF8047B704780B483B000AF78608A
:100AF00039603B684FF400525A60002318460C37A7
:100B0000BD465DF8047B704780B483B000AF786069
:100B1000012318460C37BD465DF8047B704780B44E
:100B200085B000AFF860B9607A60002318461437CA
:100B3000BD465DF8047B704780B400AF064A064BA3
:100B4000D3F8883043F47003C2F8883000BFBD4644
:100B50005DF8047B704700BF00ED00E080B58EB00B
:100B600000AF07F1280300221A605A609A60DA6029
:100B700007F1200300221A605A603B1D00221A6010
:100B80005A609A60DA601A615A619A612D4B4FF08F
:100B900080421A602B4B02225A602A4B00229A6034
:100BA000284B40F2E732DA60264B00221A61254BCF
:100BB00000229A61234801F0C9FB0346002B01D0B3
:100BC000FFF7C0FE4FF48053BB6207F128031946BC
:100BD0001C4801F0E9FD0346002B01D0FFF7B2FEEF
:100BE000184801F002FC0346002B01D0FFF7AAFED3
:100BF00000233B6200237B6207F120031946114862
:100C000002F09AF90346002B01D0FFF79BFE602308
:100C10007B606323BB600023FB6000237B613B1D83
:100C200004221946074801F001FD0346002B01D0BC
:100C3000FFF788FE034800F027F800BF3837BD46AD
:100C400080BD00BFE400002080B485B000AF7860B4
:100C50007B681B68B3F1804F0DD10023FB60094A0C
:100C6000084B1B6C43F001031364064B1B6C03F031
:100C70000103FB60FB6800BF1437BD465DF8047BD1
:100C8000704700BF0038024080B588B000AF786080
:100C900007F10C0300221A605A609A60DA601A6148
:100CA0007B681B68B3F1804F1DD10023BB60104AE5
:100CB0000F4B1B6B43F0020313630D4B1B6B03F0D5
:100CC0000203BB60BB680823FB6002233B61002377
:100CD0007B610023BB610123FB6107F10C03194613
:100CE000044800F015FD00BF2037BD4680BD00BFA1
:100CF000003802400004024080B500AF114B124A98
:100D00001A60104B4FF4E1325A600E4B00229A6089
:100D10000C4B0022DA600B4B00221A61094B0C22AB
:100D20005A61084B00229A61064B0022DA6105489D
:100D300002F07EF90346002B01D0FFF703FE00BF4F
:100D400080BD00BF2C0100200048004080B58AB063
:100D500000AF786007F1140300221A605A609A60AD
:100D6000DA601A617B681B68194A93422CD1002310
:100D70003B61184A174B1B6C43F480231364154BDB
:100D80001B6C03F480233B613B690023FB60114A29
:100D9000104B1B6B43F0020313630E4B1B6B03F0F2
:100DA0000203FB60FB684FF440637B610223BB617D
:100DB0000023FB6103233B6207237B6207F11403DB
:100DC0001946054800F0A4FC00BF2837BD4680BD89
:100DD00000480040003802400004024080B500AFE7
:100DE0000E4A0E4B1B6843F4007313600B4A0B4B07
:100DF0001B6843F480631360084A084B1B6843F484
:100E000080731360032000F0AFFB002000F008F8AF
:100E1000FFF79CFD0023184680BD00BF003C024048
:100E200080B582B000AF7860124B1A68124B1B7805
:100E300019464FF47A73B3FBF1F3B2FBF3F31846A0
:100E400000F0C7FB0346002B01D001230EE07B68B6
:100E50000F2B0AD8002279684FF0FF3000F08FFB8B
:100E6000064A7B681360002300E001231846083718
:100E7000BD4680BD000000200800002004000020C6
:100E800080B400AF064B1B781A46064B1B68134410
:100E9000044A136000BFBD465DF8047B704700BF85
:100EA000080000207001002080B400AF034B1B68D5
:100EB0001846BD465DF8047B704700BF70010020F6
:100EC00080B584B000AF7860FFF7EEFFB8607B6854
:100ED000FB60FB68B3F1FF3F05D0094B1B781A4656
:100EE000FB681344FB6000BFFFF7DEFF0246BB68F0
:100EF000D21AFB689A42F7D300BF1037BD4680BDB7
:100F00000800002080B584B000AF78600023FB7338
:100F10007B68002B01D1012333E07B681B6C002B25
:100F200009D17868FFF77EFB7B6800225A647B68F2
:100F3000002283F83C207B681B6C03F01003002B1D
:100F400018D17B681B6C23F4885323F0020343F011
:100F500002027B681A64786800F03CF97B68002222
:100F60005A647B681B6C23F0030343F001027B6827
:100F70001A6401E00123FB737B68002283F83C20A4
:100F8000FB7B18461037BD4680BD000090B484B08E
:100F900000AF786039600023BB607B6893F83C3019
:100FA000012B01D1022307E17B68012283F83C2059
:100FB0003B681B68092B26D97B681A687B681B680D
:100FC000D9683B681B689BB2184603465B00034424
:100FD0001E3B072000FA03F3DB430B40D3607B6822
:100FE0001A687B681B68D9683B6898683B681B680F
:100FF0009BB21C4623465B0023441E3B00FA03F3CE
:101000000B43D36023E07B681A687B681B6819690F
:101010003B681B689BB2184603465B0003440720ED
:1010200000FA03F3DB430B4013617B681A687B68AB
:101030001B6819693B6898683B681B689BB21C4633
:1010400023465B00234400FA03F30B4313613B6820
:101050005B68062B24D87B6819687B681B68586B13
:101060003B685A6813469B001344053B1F2202FA53
:1010700003F3DB4303404B637B6819687B681B68A1
:10108000586B3B681B689BB21C463B685A6813460A
:101090009B001344053B04FA03F303434B634CE00A
:1010A0003B685B680C2B24D87B6819687B681B68DD
:1010B000186B3B685A6813469B001344233B1F225E
:1010C00002FA03F3DB4303400B637B6819687B6818
:1010D0001B68186B3B681B689BB21C463B685A68D0
:1010E00013469B001344233B04FA03F303430B63AF
:1010F00023E07B6819687B681B68D86A3B685A687C
:1011000013469B001344413B1F2202FA03F3DB43C7
:101110000340CB627B6819687B681B68D86A3B68B0
:101120001B689BB21C463B685A6813469B001344DD
:10113000413B04FA03F30343CB62224BFB607B6821
:101140001B68214A934209D13B681B68122B05D1C9
:10115000FB685B6843F48002FB685A607B681B682D
:10116000194A934223D13B681B68102B03D03B687C
:101170001B68112B1BD1FB685B6843F40002FB6802
:101180005A603B681B68102B11D1104B1B68104A2A
:10119000A2FB03239A0C13469B0013445B00BB6025
:1011A00002E0BB68013BBB60BB68002BF9D17B68E8
:1011B000002283F83C20002318461037BD4690BC1F
:1011C000704700BF002301400020014000000020C4
:1011D00083DE1B4380B485B000AF7860794BFB6041
:1011E000FB685B6823F44032FB685A60FB685A680E
:1011F0007B685B681A43FB685A607B681B687A6887
:101200001268526822F480725A607B681B687A68A0
:10121000126851687A68126912020A435A607B6840
:101220001B687A681268526822F040725A607B68C4
:101230001B687A68126851687A6892680A435A6033
:101240007B681B687A681268926822F400629A6070
:101250007B681B687A68126891687A68D2680A436A
:101260009A607B689B6A584A934222D07B681B68CD
:101270007A681268926822F070629A607B681B68D4
:101280007A68126891687A68926A0A439A607B6801
:101290001B687A681268926822F040529A607B68F4
:1012A0001B687A68126891687A68D26A0A439A6001
:1012B0000FE07B681B687A681268926822F070629F
:1012C0009A607B681B687A681268926822F04052C4
:1012D0009A607B681B687A681268926822F0020242
:1012E0009A607B681B687A68126891687A68127ED7
:1012F00052000A439A607B6893F82030002B1BD081
:101300007B681B687A681268526842F400625A600F
:101310007B681B687A681268526822F460425A60DF
:101320007B681B687A68126851687A68526A013A69
:1013300052030A435A6007E07B681B687A681268A8
:10134000526822F400625A607B681B687A681268EF
:10135000D26A22F47002DA627B681B687A681268CB
:10136000D16A7A68D269013A12050A43DA627B6867
:101370001B687A681268926822F400729A607B682F
:101380001B687A68126891687A6892F83020520275
:101390000A439A607B681B687A681268926822F434
:1013A00080629A607B681B687A68126891687A68C4
:1013B000526992020A439A6000BF1437BD465DF835
:1013C000047B7047002301400100000F80B485B00A
:1013D00000AF78607B6803F00703FB600C4BDB68B1
:1013E000BB60BA684FF6FF031340BB60FB681A028C
:1013F000BB68134343F0BF6343F40033BB60044A4C
:10140000BB68D36000BF1437BD465DF8047B7047EE
:1014100000ED00E080B400AF044BDB681B0A03F072
:1014200007031846BD465DF8047B704700ED00E0F9
:1014300080B483B000AF0346FB7197F90730002BEF
:101440000BDB094997F907305B09FA7902F01F02B3
:10145000012000FA02F241F8232000BF0C37BD46FC
:101460005DF8047B704700BF00E100E080B483B00A
:1014700000AF03463960FB7197F90730002B0ADB98
:101480000D4997F907303A68D2B21201D2B20B4433
:1014900083F800230AE00949FB7903F00F03043BBA
:1014A0003A68D2B21201D2B20B441A7600BF0C379E
:1014B000BD465DF8047B704700E100E000ED00E010
:1014C00080B489B000AFF860B9607A60FB6803F05F
:1014D0000703FB61FB69C3F10703042B28BF042347
:1014E000BB61FB690433062B02D9FB69033B00E0B7
:1014F00000237B610122BB6902FA03F35A1EBB6819
:101500001A407B699A4001217B6901FA03F3591E55
:101510007B680B40134318462437BD465DF8047BB7
:101520007047000080B582B000AF78607B68013BF7
:10153000B3F1807F01D301230FE00A4A7B68013BAE
:1015400053600F214FF0FF30FFF790FF054B002253
:101550009A60044B07221A60002318460837BD46DC
:1015600080BD00BF10E000E080B582B000AF7860C1
:101570007868FFF72BFF00BF0837BD4680BD80B5F8
:1015800086B000AF0346B9607A60FB7300237B61CD
:10159000FFF740FF78617A68B9687869FFF790FFD4
:1015A000024697F90F3011461846FFF75FFF00BF5C
:1015B0001837BD4680BD80B582B000AF0346FB71D1
:1015C00097F907301846FFF733FF00BF0837BD46CD
:1015D00080BD80B582B000AF78607868FFF7A2FF69
:1015E000034618460837BD4680BD80B584B000AFBD
:1015F00078607B689B6DFB60FFF756FCB8607B688A
:1016000093F83530DBB2022B08D07B6880225A6514
:101610007B68002283F83420012352E07B681B683A
:101620007A681268126822F016021A607B681B68DA
:101630007A681268526922F080025A617B681B6CDA
:10164000002B03D17B689B6C002B07D07B681B6849
:101650007A681268126822F008021A607B681B68B8
:101660007A681268126822F001021A6013E0FFF72C
:101670001BFC0246BB68D31A052B0CD97B682022C1
:101680005A657B68002283F834207B68032283F844
:101690003520032315E07B681B681B6803F00103FA
:1016A000002BE4D17B68DB6D3F229A40FB689A6097
:1016B0007B68002283F834207B68012283F8352080
:1016C000002318461037BD4680BD80B483B000AFFC
:1016D00078607B6893F83530DBB2022B04D07B68EE
:1016E00080225A6501230CE07B68052283F83520AF
:1016F0007B681B687A681268126822F001021A601F
:10170000002318460C37BD465DF8047B7047000087
:1017100080B489B000AF7860396000237B6100231A
:101720003B610023BB610023FB616BE10122FB698C
:1017300002FA03F37B613B681A687B6913403B61E3
:101740003A697B699A4240F05A813B685B6803F0D2
:101750000303012B05D03B685B6803F00303022BF6
:1017600030D17B689B68BB61FB695B00032202FA96
:1017700003F3DB43BA691340BB613B68DA68FB697A
:101780005B0002FA03F3BA691343BB617B68BA6971
:101790009A607B685B68BB610122FB6902FA03F314
:1017A000DB43BA691340BB613B685B681B0903F00C
:1017B0000102FB6902FA03F3BA691343BB617B6858
:1017C000BA695A603B685B6803F00303032B17D0C8
:1017D0007B68DB68BB61FB695B00032202FA03F3F1
:1017E000DB43BA691340BB613B689A68FB695B00E5
:1017F00002FA03F3BA691343BB617B68BA69DA6022
:101800003B685B6803F00303022B23D1FB69DA0812
:101810007B68083253F82230BB61FB6903F0070391
:101820009B000F2202FA03F3DB43BA691340BB614A
:101830003B681A69FB6903F007039B0002FA03F394
:10184000BA691343BB61FB69DA087B680832B9697E
:1018500043F822107B681B68BB61FB695B000322B5
:1018600002FA03F3DB43BA691340BB613B685B6870
:1018700003F00302FB695B0002FA03F3BA69134346
:10188000BB617B68BA691A603B685B6803F0805390
:10189000002B00F0B4800023FB605F4A5E4B5B6C62
:1018A00043F4804353645C4B5B6C03F48043FB6004
:1018B000FB685A4AFB699B08023352F82330BB612C
:1018C000FB6903F003039B000F2202FA03F3DB43DF
:1018D000BA691340BB617B68514A93422BD07B6845
:1018E000504A934225D07B684F4A93421FD07B6871
:1018F0004E4A934219D07B684D4A934213D07B687D
:101900004C4A93420DD07B684B4A934207D07B6888
:101910004A4A934201D107230EE008230CE0062334
:101920000AE0052308E0042306E0032304E0022381
:1019300002E0012300E00023FA6902F003029200B2
:101940009340BA691343BB613449FB699B08023376
:10195000BA6941F823203A4B1B68BB613B69DB4302
:10196000BA691340BB613B685B6803F48033002BAA
:1019700003D0BA693B691343BB61314ABB69136049
:101980002F4B5B68BB613B69DB43BA691340BB61AA
:101990003B685B6803F40033002B03D0BA693B69F2
:1019A0001343BB61264ABB695360254B9B68BB61EF
:1019B0003B69DB43BA691340BB613B685B6803F476
:1019C0008013002B03D0BA693B691343BB611C4AE7
:1019D000BB6993601A4BDB68BB613B69DB43BA6947
:1019E0001340BB613B685B6803F40013002B03D01A
:1019F000BA693B691343BB61114ABB69D360FB6998
:101A00000133FB61FB690F2B7FF690AE00BF2437DB
:101A1000BD465DF8047B7047003802400038014045
:101A2000000002400004024000080240000C024096
:101A3000001002400014024000180240001C024046
:101A4000003C014080B483B000AF78600B467B80DF
:101A500013467B707B78002B03D07A887B689A6171
:101A600003E07B881A047B689A6100BF0C37BD468F
:101A70005DF8047B7047000080B586B000AF7860E9
:101A80007B68002B01D1012364E27B681B6803F0B3
:101A90000103002B75D0A34B9B6803F00C03042BB0
:101AA0000CD0A04B9B6803F00C03082B12D19D4B6C
:101AB0005B6803F48003B3F5800F0BD1994B1B686F
:101AC00003F40033002B5BD07B685B68002B57D19D
:101AD00001233FE27B685B68B3F5803F06D1914A02
:101AE000904B1B6843F4803313601DE07B685B6898
:101AF000B3F5A02F0CD18B4A8A4B1B6843F480238B
:101B00001360884A874B1B6843F4803313600BE0F3
:101B1000844A844B1B6823F480331360814A814BD1
:101B20001B6823F4802313607B685B68002B13D051
:101B3000FFF7BAF9386108E0FFF7B6F902463B69EA
:101B4000D31A642B01D9032304E2764B1B6803F4F8
:101B50000033002BF0D014E0FFF7A6F9386108E05D
:101B6000FFF7A2F902463B69D31A642B01D903237C
:101B7000F0E16C4B1B6803F40033002BF0D100E064
:101B800000BF7B681B6803F00203002B63D0654B2A
:101B90009B6803F00C03002B0BD0624B9B6803F097
:101BA0000C03082B1CD15F4B5B6803F48003002BF4
:101BB00016D15C4B1B6803F00203002B05D07B6839
:101BC000DB68012B01D00123C4E15649554B1B684A
:101BD00023F0F8027B681B69DB0013430B603AE0DB
:101BE0007B68DB68002B20D04F4B01221A60FFF787
:101BF0005BF9386108E0FFF757F902463B69D31AF1
:101C0000022B01D90323A5E1464B1B6803F0020315
:101C1000002BF0D04349434B1B6823F0F8027B684C
:101C20001B69DB0013430B6015E03F4B00221A6079
:101C3000FFF73AF9386108E0FFF736F902463B69E9
:101C4000D31A022B01D9032384E1364B1B6803F01E
:101C50000203002BF0D17B681B6803F00803002B04
:101C600030D07B685B69002B16D0304B01221A60A4
:101C7000FFF71AF9386108E0FFF716F902463B69E9
:101C8000D31A022B01D9032364E1264B5B6F03F0C7
:101C90000203002BF0D015E0244B00221A60FFF75E
:101CA00003F9386108E0FFF7FFF802463B69D31AF1
:101CB000022B01D903234DE11A4B5B6F03F00203A2
:101CC000002BF0D17B681B6803F00403002B00F0AD
:101CD000A0800023FB75134B1B6C03F08053002B7B
:101CE0000FD10023BB600F4A0E4B1B6C43F0805397
:101CF00013640C4B1B6C03F08053BB60BB68012367
:101D0000FB750B4B1B6803F48073002B21D1084A31
:101D1000074B1B6843F480731360FFF7C5F8386105
:101D200011E000BF0038024000004742800E4742E9
:101D300000700040FFF7B8F802463B69D31A022B47
:101D400001D9032306E1854B1B6803F48073002B44
:101D5000F0D07B689B68012B06D1814A804B1B6FBA
:101D600043F0010313671CE07B689B68052B0CD1D3
:101D70007B4A7B4B1B6F43F004031367784A784B15
:101D80001B6F43F0010313670BE0754A744B1B6F25
:101D900023F001031367724A714B1B6F23F0040396
:101DA00013677B689B68002B15D0FFF77DF83861BF
:101DB0000AE0FFF779F802463B69D31A41F288320C
:101DC000934201D90323C5E0654B1B6F03F0020367
:101DD000002BEED014E0FFF767F838610AE0FFF758
:101DE00063F802463B69D31A41F28832934201D923
:101DF0000323AFE05A4B1B6F03F00203002BEED11D
:101E0000FB7D012B05D1564A554B1B6C23F08053AB
:101E100013647B689B69002B00F09B80504B9B6890
:101E200003F00C03082B5CD07B689B69022B41D12B
:101E30004C4B00221A60FFF737F8386108E0FFF7D3
:101E400033F802463B69D31A022B01D9032381E000
:101E5000434B1B6803F00073002BF0D140497B68B3
:101E6000DA697B681B6A1A437B685B6A9B011A43C9
:101E70007B689B6A5B08013B1B041A437B68DB6A37
:101E80001B0613434B60374B01221A60FFF70CF817
:101E9000386108E0FFF708F802463B69D31A022BC5
:101EA00001D9032356E02E4B1B6803F00073002B6F
:101EB000F0D04EE02B4B00221A60FEF7F5FF3861A0
:101EC00008E0FEF7F1FF02463B69D31A022B01D965
:101ED00003233FE0224B1B6803F00073002BF0D17B
:101EE00037E07B689B69012B01D1012332E01C4B59
:101EF0005B68FB607B689B69012B28D0FB6803F45F
:101F000080027B68DB699A4221D1FB6803F03F02C3
:101F10007B681B6A9A421AD1FA6847F6C07313406D
:101F20007A68526A9201934211D1FB6803F44032FD
:101F30007B689B6A5B08013B1B049A4207D1FB68E4
:101F400003F070627B68DB6A1B069A4201D00123B2
:101F500000E0002318461837BD4680BD00700040E1
:101F6000003802406000474280B584B000AF78601E
:101F700039607B68002B01D10123CCE0684B1B68E2
:101F800003F007023B689A420CD2654B3A68D2B222
:101F90001A70634B1B6803F007023B689A4201D03A
:101FA0000123B8E07B681B6803F00203002B20D0FC
:101FB0007B681B6803F00403002B05D0594A594B7A
:101FC0009B6843F4E05393607B681B6803F008034D
:101FD000002B05D0534A534B9B6843F460439360F6
:101FE0005049504B9B6823F0F0027B689B68134379
:101FF0008B607B681B6803F00103002B44D07B6877
:102000005B68012B07D1474B1B6803F40033002B9F
:1020100019D101237FE07B685B68022B03D07B68CA
:102020005B68032B07D13F4B1B6803F00073002B49
:1020300009D101236FE03B4B1B6803F00203002B27
:1020400001D1012367E03749364B9B6823F0030237
:102050007B685B6813438B60FEF726FFF8600AE03D
:10206000FEF722FF0246FB68D31A41F28832934200
:1020700001D903234FE02B4B9B6803F00C027B68D4
:102080005B689B009A42EBD1254B1B6803F007026B
:102090003B689A420CD9224B3A68D2B21A70204B54
:1020A0001B6803F007023B689A4201D0012332E02B
:1020B0007B681B6803F00403002B08D01949194BF7
:1020C0009B6823F4E0527B68DB6813438B607B687A
:1020D0001B6803F00803002B09D01249114B9B68C1
:1020E00023F460427B681B69DB0013438B6000F0C4
:1020F00021F801460B4B9B681B0903F00F030A4AAA
:10210000D35C21FA03F3094A1360094B1B68184694
:10211000FEF786FE002318461037BD4680BD00BF7F
:10212000003C024000380240944B000800000020B0
:10213000040000202DE9F04F8FB000AF0023FB62B8
:1021400000237B630023BB6200233B63624B9B68DD
:1021500003F00C03042B07D0082B08D0002B40F011
:10216000B2805E4B3B63B1E05D4B3B63AEE05A4BEC
:102170005B6803F03F03FB62574B5B6803F480032B
:10218000002B4ED0544B5B689B094FF0000440F28B
:10219000FF114FF0000201EA030102EA04020B46BC
:1021A000144660017862786A40EAD36078625B0125
:1021B0003B62D7E908345B1A64EB02044FEA8419E6
:1021C00049EA93694FEA8318B8EB030869EB0409FD
:1021D0004FEAC903FB61FB6943EA5873FB614FEAAD
:1021E000C803BB61D7E9068918EB010849EB02096E
:1021F0004FEA49237B617B6943EAD8537B614FEA0D
:1022000048233B61D7E9048940464946FB6A4FF0C1
:1022100000041A462346FEF72BF803460C467B6360
:1022200043E02D4B5B689B094FF0000440F2FF1127
:102230004FF0000201EA030102EA04020B461446D1
:102240006001F860F86840EAD360F8605B01BB6049
:10225000D7E902345B1A64EB0204A60146EA9366EE
:102260009D01ED1A66EB0406F3007B607B6843EA90
:1022700055737B60EB003B6097E860006D1846EBA0
:1022800002064FEA862B4BEA955B4FEA852A5546B4
:102290005E4628463146FB6A4FF000041A46234644
:1022A000FDF7E6FF03460C467B630B4B5B681B0C9C
:1022B00003F0030301335B00BB627A6BBB6AB2FBC2
:1022C000F3F33B6302E0054B3B6300BF3B6B1846F7
:1022D0003C37BD46BDE8F08F003802400024F400D2
:1022E00000127A0080B400AF034B1B681846BD464D
:1022F0005DF8047B704700BF0000002080B500AF90
:10230000FFF7F0FF0146054B9B689B0A03F00703AC
:10231000034AD35C21FA03F3184680BD003802401B
:10232000A44B000880B500AFFFF7DCFF0146054B6A
:102330009B685B0B03F00703034AD35C21FA03F3AA
:10234000184680BD00380240A44B000880B582B01A
:1023500000AF78607B68002B01D1012341E07B68EE
:1023600093F83D30DBB2002B06D17B68002283F866
:102370003C207868FEF768FC7B68022283F83D20E9
:102380007B681A687B6804331946104600F0C4FA6B
:102390007B68012283F846207B68012283F83E2077
:1023A0007B68012283F83F207B68012283F840206C
:1023B0007B68012283F841207B68012283F8422058
:1023C0007B68012283F843207B68012283F8442044
:1023D0007B68012283F845207B68012283F83D2039
:1023E000002318460837BD4680BD80B582B000AFD7
:1023F00078607B68002B01D1012341E07B6893F872
:102400003D30DBB2002B06D17B68002283F83C20F4
:10241000786800F039F87B68022283F83D207B68F9
:102420001A687B6804331946104600F075FA7B6819
:10243000012283F846207B68012283F83E207B68D6
:10244000012283F83F207B68012283F840207B68CB
:10245000012283F841207B68012283F842207B68B7
:10246000012283F843207B68012283F844207B68A3
:10247000012283F845207B68012283F83D20002358
:1024800018460837BD4680BD80B483B000AF786081
:1024900000BF0C37BD465DF8047B704780B584B043
:1024A00000AF786039603B68002B09D17B6893F8F6
:1024B0003E30DBB2012B14BF01230023DBB222E04C
:1024C0003B68042B09D17B6893F83F30DBB2012BCA
:1024D00014BF01230023DBB215E03B68082B09D1B0
:1024E0007B6893F84030DBB2012B14BF012300233B
:1024F000DBB208E07B6893F84130DBB2012B14BFFC
:1025000001230023DBB2002B01D001237CE03B68D8
:10251000002B04D17B68022283F83E2013E03B6845
:10252000042B04D17B68022283F83F200BE03B6838
:10253000082B04D17B68022283F8402003E07B68EB
:10254000022283F841207B681B6801223968184603
:1025500000F0CCFC7B681B682D4A934204D07B685A
:102560001B682C4A934201D1012300E00023002B79
:1025700007D07B681B687A681268526C42F400428C
:102580005A647B681B68224A934222D07B681B688E
:10259000B3F1804F1DD07B681B681F4A934218D04F
:1025A0007B681B681D4A934213D07B681B681C4ADA
:1025B00093420ED07B681B68164A934209D07B6811
:1025C0001B68184A934204D07B681B68164A9342E2
:1025D00011D17B681B689B6803F00703FB60FB68F5
:1025E000062B10D07B681B687A681268126842F06C
:1025F00001021A6007E07B681B687A68126812683B
:1026000042F001021A60002318461037BD4680BD13
:1026100000000140000401400004004000080040A8
:10262000000C0040004001400018004080B584B01C
:1026300000AFF860B9607A60FB6893F83C30012B1A
:1026400001D10223ACE0FB68012283F83C207B68C7
:102650000C2B00F29F8001A252F823F09126000873
:10266000952700089527000895270008D12600081F
:1026700095270008952700089527000813270008CC
:10268000952700089527000895270008532700087C
:10269000FB681B68B968184600F0DEF9FB681B6828
:1026A000FA681268926942F008029A61FB681B6836
:1026B000FA681268926922F004029A61FB681B684A
:1026C000FA6812689169BA6812690A439A6162E00D
:1026D000FB681B68B968184600F02EFAFB681B6897
:1026E000FA681268926942F400629A61FB681B689A
:1026F000FA681268926922F480629A61FB681B682A
:10270000FA6812689169BA68126912020A439A61FA
:1027100041E0FB681B68B968184600F083FAFB6863
:102720001B68FA681268D26942F00802DA61FB6835
:102730001B68FA681268D26922F00402DA61FB6849
:102740001B68FA681268D169BA6812690A43DA61CB
:1027500021E0FB681B68B968184600F0D7FAFB68EF
:102760001B68FA681268D26942F40062DA61FB6899
:102770001B68FA681268D26922F48062DA61FB6829
:102780001B68FA681268D169BA68126912020A43B2
:10279000DA6100E000BFFB68002283F83C200023E0
:1027A00018461037BD4680BD80B584B000AF786054
:1027B00039607B6893F83C30012B01D10223A6E0FD
:1027C0007B68012283F83C207B68022283F83D204D
:1027D0007B681B689B68FB60FB6823F07703FB60EA
:1027E000FB6823F47F43FB607B681B68FA689A6090
:1027F0003B681B68402B67D0402B0BD8102B73D045
:10280000102B02D8002B6FD078E0202B6CD0302B0F
:102810006AD073E0702B0DD0702B04D8502B33D0BE
:10282000602B41D06AE0B3F5805F66D0B3F5005FFE
:1028300017D063E07B6818683B6899683B685A6802
:102840003B68DB6800F032FB7B681B689B68FB60C1
:10285000FB6843F07703FB607B681B68FA689A604B
:102860004CE07B6818683B6899683B685A683B682D
:10287000DB6800F01BFB7B681B687A681268926853
:1028800042F480429A6039E07B6818683B68596876
:102890003B68DB681A4600F08FFA7B681B685021A2
:1028A000184600F0E8FA29E07B6818683B68596828
:1028B0003B68DB681A4600F0AEFA7B681B68602153
:1028C000184600F0D8FA19E07B6818683B68596828
:1028D0003B68DB681A4600F06FFA7B681B68402192
:1028E000184600F0C8FA09E07B681A683B681B6864
:1028F0001946104600F0BFFA00E000BF7B680122D5
:1029000083F83D207B68002283F83C200023184692
:102910001037BD4680BD000080B485B000AF786040
:1029200039607B681B68FB607B68404A934213D028
:102930007B68B3F1804F0FD07B683D4A93420BD048
:102940007B683C4A934207D07B683B4A934203D062
:102950007B683A4A934208D1FB6823F07003FB601E
:102960003B685B68FA681343FB607B682F4A9342BD
:102970002BD07B68B3F1804F27D07B682C4A9342E1
:1029800023D07B682B4A93421FD07B682A4A93420C
:102990001BD07B68294A934217D07B68284A934210
:1029A00013D07B68274A93420FD07B68264A934214
:1029B0000BD07B68254A934207D07B68244A934218
:1029C00003D07B68234A934208D1FB6823F4407309
:1029D000FB603B68DB68FA681343FB60FB6823F02D
:1029E00080023B685B691343FB607B68FA681A608E
:1029F0003B689A687B68DA623B681A687B689A620F
:102A00007B680A4A934203D07B680C4A934203D105
:102A10003B681A697B681A637B6801225A6100BFB0
:102A20001437BD465DF8047B704700BF00000140CD
:102A30000004004000080040000C00400004014079
:102A4000004001400044014000480140001800409F
:102A5000001C00400020004080B487B000AF7860C8
:102A600039607B681B6A23F001027B681A627B680D
:102A70001B6A7B617B685B683B617B689B69FB6071
:102A8000FB6823F07003FB60FB6823F00303FB602B
:102A90003B681B68FA681343FB607B6923F0020301
:102AA0007B613B689B687A6913437B617B68204A42
:102AB000934203D07B681F4A93420CD17B6923F079
:102AC00008037B613B68DB687A6913437B617B6940
:102AD00023F004037B617B68154A934203D07B6833
:102AE000144A934211D13B6923F480733B613B69E3
:102AF00023F400733B613B685B693A6913433B61B4
:102B00003B689B693A6913433B617B683A695A6049
:102B10007B68FA689A613B685A687B685A637B688D
:102B20007A691A6200BF1C37BD465DF8047B7047A6
:102B3000000001400004014080B487B000AF78601D
:102B400039607B681B6A23F010027B681A627B681D
:102B50001B6A7B617B685B683B617B689B69FB6090
:102B6000FB6823F4E043FB60FB6823F44073FB60E5
:102B70003B681B681B02FA681343FB607B6923F008
:102B800020037B613B689B681B017A6913437B616F
:102B90007B68224A934203D07B68214A93420DD13D
:102BA0007B6923F080037B613B68DB681B017A69EA
:102BB00013437B617B6923F040037B617B68174A89
:102BC000934203D07B68164A934213D13B6923F4A6
:102BD00080633B613B6923F400633B613B685B6955
:102BE0009B003A6913433B613B689B699B003A69D0
:102BF00013433B617B683A695A607B68FA689A6163
:102C00003B685A687B689A637B687A691A6200BF7E
:102C10001C37BD465DF8047B704700BF00000140D3
:102C20000004014080B487B000AF786039607B68F1
:102C30001B6A23F480727B681A627B681B6A7B6163
:102C40007B685B683B617B68DB69FB60FB6823F04A
:102C50007003FB60FB6823F00303FB603B681B68A9
:102C6000FA681343FB607B6923F400737B613B6864
:102C70009B681B027A6913437B617B68214A9342FC
:102C800003D07B68204A93420DD17B6923F4006313
:102C90007B613B68DB681B027A6913437B617B695C
:102CA00023F480637B617B68164A934203D07B6880
:102CB000154A934213D13B6923F480533B613B692E
:102CC00023F400533B613B685B691B013A69134382
:102CD0003B613B689B691B013A6913433B617B681D
:102CE0003A695A607B68FA68DA613B685A687B68BF
:102CF000DA637B687A691A6200BF1C37BD465DF8EB
:102D0000047B7047000001400004014080B487B09C
:102D100000AF786039607B681B6A23F480527B685F
:102D20001A627B681B6A3B617B685B687B617B68BE
:102D3000DB69FB60FB6823F4E043FB60FB6823F482
:102D40004073FB603B681B681B02FA681343FB601F
:102D50003B6923F400533B613B689B681B033A6962
:102D600013433B617B68124A934203D07B68114A4C
:102D7000934209D17B6923F480437B613B685B69A3
:102D80009B017A6913437B617B687A695A607B682F
:102D9000FA68DA613B685A687B681A647B683A694A
:102DA0001A6200BF1C37BD465DF8047B704700BF48
:102DB000000001400004014080B487B000AFF8601B
:102DC000B9607A60FB681B6A7B61FB681B6A23F051
:102DD0000102FB681A62FB689B693B613B6923F057
:102DE000F0033B617B681B013A6913433B617B69DC
:102DF00023F00A037B617A69BB6813437B61FB683C
:102E00003A699A61FB687A691A6200BF1C37BD464D
:102E10005DF8047B704780B487B000AFF860B9609C
:102E20007A60FB681B6A23F01002FB681A62FB6879
:102E30009B697B61FB681B6A3B617B6923F4704380
:102E40007B617B681B037A6913437B613B6923F0D9
:102E5000A0033B61BB681B013A6913433B61FB68FC
:102E60007A699A61FB683A691A6200BF1C37BD46ED
:102E70005DF8047B704780B485B000AF786039603E
:102E80007B689B68FB60FB6823F07003FB603A681B
:102E9000FB68134343F00703FB607B68FA689A60A2
:102EA00000BF1437BD465DF8047B704780B487B01F
:102EB00000AFF860B9607A603B60FB689B687B613B
:102EC0007B6923F47F437B613B681A027B681A436A
:102ED000BB6813437A6913437B61FB687A699A6024
:102EE00000BF1C37BD465DF8047B704780B487B0D7
:102EF00000AFF860B9607A60BB6803F01F0301227D
:102F000002FA03F37B61FB681A6A7B69DB431A40B0
:102F1000FB681A62FB681A6ABB6803F01F037968D2
:102F200001FA03F31A43FB681A6200BF1C37BD465F
:102F30005DF8047B7047000080B485B000AF786016
:102F400039607B6893F83C30012B01D102235AE0B1
:102F50007B68012283F83C207B68022283F83D20B5
:102F60007B681B685B68FB607B681B689B68BB6059
:102F7000FB6823F07003FB603B681B68FA6813432F
:102F8000FB607B681B68FA685A607B681B68214A93
:102F9000934222D07B681B68B3F1804F1DD07B68C1
:102FA0001B681D4A934218D07B681B681B4A9342DA
:102FB00013D07B681B681A4A93420ED07B681B684B
:102FC000184A934209D07B681B68174A934204D081
:102FD0007B681B68154A93420CD1BB6823F08003C1
:102FE000BB603B685B68BA681343BB607B681B6867
:102FF000BA689A607B68012283F83D207B680022D2
:1030000083F83C20002318461437BD465DF8047B46
:10301000704700BF0000014000040040000800406D
:10302000000C004000040140004001400018004036
:1030300080B582B000AF78607B68002B01D101239E
:103040003FE07B6893F83D30DBB2002B06D17B6814
:10305000002283F83C207868FDF778FE7B68242204
:1030600083F83D207B681B687A681268D26822F476
:103070000052DA60786800F079FC7B681B687A6837
:103080001268126922F490421A617B681B687A68A0
:103090001268526922F02A025A617B681B687A68BA
:1030A0001268D26842F40052DA607B6800221A6427
:1030B0007B68202283F83D207B68202283F83E2015
:1030C000002318460837BD4680BD80B58AB002AFE0
:1030D000F860B9603B601346FB8000237B61FB68AE
:1030E00093F83D30DBB2202B7BD1BB68002B02D0A4
:1030F000FB88002B01D1012374E0FB6893F83C307E
:10310000012B01D102236DE0FB68012283F83C20F2
:10311000FB6800221A64FB68212283F83D20FDF73A
:10312000C3FE7861FB68FA889A84FB68FA88DA84BF
:10313000FB689B68B3F5805F08D1FB681B69002BB7
:1031400004D10023FB61BB68BB6103E0BB68FB618A
:103150000023BB61FB68002283F83C2029E03B6828
:1031600000937B6900228021F86800F03BFA034657
:10317000002B01D0032335E0FB69002B0AD1FB684B
:103180001B68BA691288C2F308025A60BB6902332D
:10319000BB6107E0FB681B68FA6912785A60FB693B
:1031A0000133FB61FB68DB8C9BB2013B9AB2FB688D
:1031B000DA84FB68DB8C9BB2002BD0D13B68009398
:1031C0007B6900224021F86800F00CFA0346002BCE
:1031D00001D0032306E0FB68202283F83D20002372
:1031E00000E0022318462037BD4680BD80B584B07C
:1031F00000AFF860B9601346FB80FB6893F83E307F
:10320000DBB2202B1DD1BB68002B02D0FB88002B2A
:1032100001D1012316E0FB6893F83C30012B01D16A
:1032200002230FE0FB68012283F83C20FB680022A8
:103230001A63FB881A46B968F86800F01DFA03465D
:1032400000E0022318461037BD4680BD80B58AB025
:1032500000AF78607B681B681B687B627B681B68BB
:10326000DB683B627B681B685B69FB610023BB61B9
:1032700000237B617B6A03F00F03BB61BB69002BFA
:103280000DD17B6A03F02003002B08D03B6A03F0CA
:103290002003002B03D0786800F0D0FA7DE1BB69F1
:1032A000002B00F0B180FB6903F00103002B05D176
:1032B0003B6A03F49073002B00F0A6807B6A03F056
:1032C0000103002B0AD03B6A03F48073002B05D066
:1032D0007B681B6C43F001027B681A647B6A03F015
:1032E0000403002B0AD0FB6903F00103002B05D077
:1032F0007B681B6C43F002027B681A647B6A03F0F4
:103300000203002B0AD0FB6903F00103002B05D058
:103310007B681B6C43F004027B681A647B6A03F0D1
:103320000803002B0FD03B6A03F02003002B04D1CD
:10333000FB6903F00103002B05D07B681B6C43F095
:1033400008027B681A647B681B6C002B00F02081EC
:103350007B6A03F02003002B07D03B6A03F02003B5
:10336000002B02D0786800F069FA7B681B685B6903
:1033700003F04003402B0CBF01230023DBB27B6131
:103380007B681B6C03F00803002B02D17B69002BC8
:1033900031D0786800F0AAF97B681B685B6903F09C
:1033A0004003402B23D17B681B687A6812685269FE
:1033B00022F040025A617B689B6B002B13D07B6824
:1033C0009B6B774A1A657B689B6B1846FEF77DF905
:1033D0000346002B16D07B689B6B1B6D7A68926B43
:1033E000104698470EE0786800F0E6F80AE0786842
:1033F00000F0E2F806E0786800F0DEF87B68002272
:103400001A64C5E000BFC3E07B681B6B012B40F072
:10341000A2807B6A03F01003002B00F09C803B6AC3
:1034200003F01003002B00F096800023FB607B6804
:103430001B681B68FB607B681B685B68FB60FB6844
:103440007B681B685B6903F04003402B4FD17B68AE
:103450009B6B1B685B687B827B8A002B00F09A80E9
:103460007B689B8D7A8A9A4280F094807B687A8A06
:10347000DA857B689B6BDB69B3F5807F2BD07B683B
:103480001B687A681268D26822F48072DA607B68FE
:103490001B687A681268526922F001025A617B68DF
:1034A0001B687A681268526922F040025A617B6890
:1034B000202283F83E207B6800221A637B681B6809
:1034C0007A681268D26822F01002DA607B689B6B1F
:1034D0001846FEF78AF87B689A8D7B68DB8D9BB275
:1034E000D31A9BB21946786800F070F852E07B68F6
:1034F0009A8D7B68DB8D9BB2D31A3B827B68DB8D18
:103500009BB2002B48D03B8A002B45D07B681B68C0
:103510007A681268D26822F49072DA607B681B685D
:103520007A681268526922F001025A617B6820228F
:1035300083F83E207B6800221A637B681B687A68E8
:103540001268D26822F01002DA603B8A1946786865
:1035500000F03CF820E07B6A03F08003002B08D0E9
:103560003B6A03F08003002B03D0786800F0FFF87B
:1035700013E07B6A03F04003002B0ED03B6A03F09C
:103580004003002B09D0786800F040F900BF04E048
:1035900000BF02E000BF00E000BF2837BD4680BD8D
:1035A0004737000880B483B000AF786000BF0C37A5
:1035B000BD465DF8047B704780B483B000AF78608F
:1035C00000BF0C37BD465DF8047B704780B483B004
:1035D00000AF78600B467B8000BF0C37BD465DF8BE
:1035E000047B704780B584B000AFF860B9603B6081
:1035F0001346FB712CE0BB69B3F1FF3F28D0BB69D8
:10360000002B07D0FDF750FC02463B68D21ABB697D
:103610009A421DD9FB681B68FA681268D26822F4C6
:10362000D072DA60FB681B68FA681268526922F08F
:1036300001025A61FB68202283F83D20FB682022AA
:1036400083F83E20FB68002283F83C2003230FE030
:10365000FB681B681A68BB681A40BB689A420CBFBB
:1036600001230023DBB21A46FB799A42C3D0002320
:1036700018461037BD4680BD80B485B000AFF860F5
:10368000B9601346FB80FB68BA689A62FB68FA88E7
:103690009A85FB68FA88DA85FB6800221A64FB6861
:1036A000222283F83E20FB68002283F83C20FB683E
:1036B0001B68FA681268D26842F48072DA60FB68AC
:1036C0001B68FA681268526942F001025A61FB688D
:1036D0001B68FA681268D26842F02002DA600023A0
:1036E00018461437BD465DF8047B704780B483B03C
:1036F00000AF78607B681B687A681268D26822F431
:103700009072DA607B681B687A681268526922F0EE
:1037100001025A617B681B6B012B07D17B681B6818
:103720007A681268D26822F01002DA607B68202280
:1037300083F83E207B6800221A6300BF0C37BD4629
:103740005DF8047B704780B584B000AF78607B681B
:103750009B6BFB60FB680022DA85FB680022DA8441
:10376000F868FFF729FF00BF1037BD4680BD80B461
:1037700085B000AF78607B6893F83D30DBB2212BD9
:103780003DD17B689B68B3F5805F13D17B681B6973
:10379000002B0FD17B681B6AFB607B681B68FA6893
:1037A0001288C2F308025A607B681B6A9A1C7B6805
:1037B0001A6208E07B681A687B681B6A581C796883
:1037C00008621B7853607B68DB8C9BB2013B9BB229
:1037D0007A681946D184002B0FD17B681B687A6800
:1037E0001268D26822F08002DA607B681B687A680F
:1037F0001268D26842F04002DA60002300E002233F
:1038000018461437BD465DF8047B704780B582B01A
:1038100000AF78607B681B687A681268D26822F013
:103820004002DA607B68202283F83D207868FFF749
:10383000B9FE002318460837BD4680BD80B584B068
:1038400000AF78607B6893F83E30DBB2222B40F00B
:1038500087807B689B68B3F5805F17D17B681B69A5
:10386000002B13D10023FB607B689B6ABB607B68E5
:103870001B685B689BB2C3F308039AB2BB681A80EB
:103880007B689B6A9A1C7B689A6226E07B689B6ACD
:10389000FB600023BB607B689B68B3F5805F07D04B
:1038A0007B689B68002B0AD17B681B69002B06D1C3
:1038B0007B681B685B68DAB2FB681A7008E07B689B
:1038C0001B685B68DBB203F07F03DAB2FB681A7037
:1038D0007B689B6A5A1C7B689A627B68DB8D9BB213
:1038E000013B9BB27A681946D185002B36D17B68A3
:1038F0001B687A681268D26822F02002DA607B685E
:103900001B687A681268D26822F48072DA607B6879
:103910001B687A681268526922F001025A617B685A
:10392000202283F83E207B681B6B012B0ED17B6825
:103930001B687A681268D26822F01002DA607B682D
:103940009B8D19467868FFF741FE02E07868FCF726
:10395000CFFF7B6800221A63002302E0002300E00F
:10396000022318461037BD4680BD00002DE9F04FF8
:1039700091B000AF78637B6B19687B6B1B681B6928
:1039800023F440527B6BDB6813430B617B6B9A68BB
:103990007B6B1B691A437B6B5B691A437B6BDB692F
:1039A0001343BB637B6B19687B6B1B68DB6823F479
:1039B000164222F00C02BB6B1343CB607B6B196881
:1039C0007B6B1B685B6923F440727B6B9B691343C1
:1039D0004B617B6B1A68BA4B9A4204D07B6B1A68B6
:1039E000B84B9A4203D1FEF79DFCF86302E0FEF764
:1039F00085FCF8637B6BDB69B3F5004F40F0A78073
:103A00007B6B1A68BA62FB6B19464FF000020B46DB
:103A10001446DB1844EB04045B1844EB0204E0009A
:103A20007861786940EA53707861DB003B61D7E9DF
:103A300004345D1844EB0206284631467B6B5B6814
:103A40004FF00004DB1844EB04041A462346FCF74D
:103A50000FFC03460C461A469B4BA3FB02235B0953
:103A60001E01FB6B19464FF000020B461446DB1893
:103A700044EB04045B1844EB02044FEAC40B4BEA2A
:103A8000537B4FEAC30A53465C4613EB010A44EBEF
:103A9000020B504659467B6B5B684FF00004DB1805
:103AA00044EB04041A462346FCF7E2FB03460C46AB
:103AB0001A46854BA3FB02135B09642101FB03F348
:103AC000D31ADB003233804AA2FB03235B095B007D
:103AD00003F4F8731E44FB6B19464FF000020B46CB
:103AE0001446DB1844EB04045B1844EB02044FEA71
:103AF000C40949EA53794FEAC30843464C4613EBDD
:103B0000010844EB0209404649467B6B5B684FF075
:103B10000004DB1844EB04041A462346FCF7A8FB18
:103B200003460C461A46684BA3FB02135B0964214B
:103B300001FB03F3D31ADB003233634AA2FB0323F6
:103B40005B0903F007033344BA6A9360B3E07B6B0D
:103B50001B683B61FB6B19464FF000020B46144695
:103B6000DB1844EB04045B1844EB0204E60046EA6D
:103B70005376DD002B4634465D1844EB020628469A
:103B800031467B6B5B684FF00004A500FD62FD6A67
:103B900045EA9375FD629C00BC62D7E90A23FCF7F5
:103BA00067FB03460C461A46474BA3FB02135B090F
:103BB0001D01FB6B19464FF000020B461446DB1843
:103BC00044EB04045B1844EB0204E000F860F8687E
:103BD00040EA5370F860D800B860D7E9023413EBBC
:103BE000010844EB0209404649467B6B5B684FF095
:103BF0000004A6007E627E6A46EA93767E629C009E
:103C00003C62D7E90823FCF733FB03460C461A460F
:103C10002D4BA3FB02135B09642101FB03F3D31AB1
:103C20001B013233284AA2FB03135B0903F0F003A4
:103C30001D44FB6B19464FF000020B461446DB187F
:103C400044EB04045B1844EB0204E00078607868FD
:103C500040EA53707860D800386097E8180013EB9A
:103C6000010844EB0209404649467B6B5B684FF014
:103C70000004A600FE61FE6946EA9376FE619C00A0
:103C8000BC61D7E90623FCF7F3FA03460C461A4653
:103C90000D4BA3FB02135B09642101FB03F3D31A51
:103CA0001B013233084AA2FB03135B0903F00F0325
:103CB0002B443A69936000BF4437BD46BDE8F08F9E
:103CC00000100140001401401F85EB51DFF834D093
:103CD0000D480E490E4A002302E0D458C450043364
:103CE000C4188C42F9D30B4A0B4C002301E013603B
:103CF0000432A242FBD3FCF71FFF00F017F8FCF7D9
:103D000055FD7047000002200000002070000020D8
:103D1000544C00087000002078010020FEE70000ED
:103D2000014B1868704700BF0C00002070B50D4EA5
:103D30000D4CA41BA4100025A54209D10B4E0C4C20
:103D400000F018FFA41BA4100025A54205D170BDEA
:103D500056F8253098470135EEE756F82530984754
:103D60000135F2E74C4C00084C4C00084C4C000864
:103D7000504C000802440346934200D1704703F8B8
:103D8000011BF9E70FB40A4B13B51C6824B1A369F2
:103D900013B9204600F04EF805AB049AA1680193D0
:103DA000204600F059F902B0BDE8104004B0704759
:103DB0000C000020014900F0A9B800BF2D490008FF
:103DC000002310B50446036043608360818143662D
:103DD000C281036143618361194608225C30FFF7A9
:103DE000C9FF054B6362054BA362054BE362054BBC
:103DF0002462236310BD00BFD1450008F3450008CD
:103E00002B4600084F46000870B54A1E68255543EA
:103E10000E4605F1740100F097F8044640B1002108
:103E200080E842000C30A06005F16802FFF7A2FFB5
:103E3000204670BD836910B5044633BB8364C364F8
:103E40000365124B124A1B688262984204BF012329
:103E5000836100F01FF86060204600F01BF8A0604E
:103E6000204600F017F80022E06004216068FFF7A8
:103E7000A7FF01220921A068FFF7A2FF0222122159
:103E8000E068FFF79DFF0123A36110BDAC4B000864
:103E9000B53D0008F8B51C4B1E68B369074613B959
:103EA0003046FFF7C7FF4836B4687368013B03D557
:103EB000336833B13668F7E7B4F90C506DB1683444
:103EC000F4E704213846FFF79FFF30600028F1D166
:103ED0000C233B6004462046F8BD4FF6FF73E38198
:103EE0000123A38165662560A56065602561656124
:103EF000A5610822294604F15C00FFF73BFF6563DA
:103F0000A563A564E564E6E7AC4B00082DE9F8433A
:103F10008046894600F14804002614B93046BDE8C1
:103F2000F883A5686768013F01D52468F5E7AB8988
:103F3000012B07D9B5F90E30013303D0294640468D
:103F4000C84706436835EEE770B5CD1C25F003057C
:103F500008350C2D38BF0C25002D064601DBA94283
:103F600003D90C233360002070BD00F07FFD234A8D
:103F70001468214691B9224C23681BB9304600F0E1
:103F800017FB20602946304600F012FB431C26D167
:103F90000C233360304600F06AFDE4E70B685B1BDE
:103FA0001AD40B2B0FD90B60CD50CC18304600F033
:103FB0005EFD04F10B00231D20F00700C31A1BD087
:103FC0005A42E25070BD8C420DBF63684B6863601B
:103FD000136018BF0C46E9E70C464968CAE7C41CE1
:103FE00024F00304A04205D0211A304600F0E0FA84
:103FF0000130CDD02560D9E770BD00BF9000002012
:10400000940000209368013B002B10B4936009DA00
:104010009469A34202DBCBB20A2B03D15DF8044BB7
:1040200000F01ABB1368581C10601970C8B25DF814
:10403000044B7047F8B506460F461446D518AC42F7
:1040400001D1002007E03A4614F8011B3046FFF783
:10405000D9FF431CF3D1F8BD2DE9F04F9DB00C46BC
:1040600017460393064618B183690BB9FFF7E2FEC2
:104070007C4B9C4257D17468A38918075DD523698E
:10408000002B5AD00023099320238DF829303023A8
:104090008DF82A304FF0010BB846454615F8013B24
:1040A000002B55D1B8EB070A0BD053463A462146B0
:1040B0003046FFF7BFFF013000F0C480099B534436
:1040C000099398F80030002B00F0BC8000234FF0DB
:1040D000FF3204930793059206938DF853301A9399
:1040E000052229786048FCF773F805F10108049B64
:1040F000002831D1D90644BF20228DF853201A0759
:1041000044BF2B228DF853202A782A2A2CD0079AD4
:1041100000210A20A846013598F80030303B092BD1
:104120006DD971B326E0514B9C4201D1B468A3E72D
:104130004F4B9C4208BFF4689EE72146304600F092
:10414000EFFA00289ED04FF0FF301DB0BDE8F08F91
:10415000252BA7D0A846A0E7434A801A0BFA00F007
:10416000184304904546BBE7039A111D126803915A
:10417000002A01DB079204E0524243F00203079257
:10418000049398F800302E2B10D198F801302A2B88
:1041900008F1010137D1039B1A1D1B680392002B04
:1041A000B8BF4FF0FF3308F102080593314D98F87E
:1041B000001003222846FCF70BF840B14023401BB7
:1041C00003FA00F0049B0343049308F1010898F8F4
:1041D000001029488DF82810062208F10107FBF786
:1041E000F7FF002834D0254B03BB039B073323F094
:1041F000070308330393099B4B4409934CE700FBE7
:104200000232012186E70023059318460A258846D5
:10421000013198F80020303A092A03D9002BC5D083
:104220000590C3E705FB00200123F0E703AB0093F3
:104230002246134B04A93046AFF30080B0F1FF3F94
:104240008146D8D1A3895B063FF57DAF09987CE70D
:1042500003AB009322460A4B04A9304600F088F8CD
:10426000ECE700BFD04B0008104C0008F04B0008F2
:10427000B04B0008164C00081A4C00080000000063
:10428000354000082DE9F04791461F468A680B69C2
:10429000DDF820809342B8BF1346C9F8003091F88A
:1042A000432006460C4612B10133C9F8003023689A
:1042B000990642BFD9F800300233C9F800302568AA
:1042C00015F0060507D104F1190AE368D9F80020B2
:1042D0009B1A9D4229DB94F843302268003318BFB3
:1042E000012392062ED404F1430239463046C047DA
:1042F000013021D02368E568D9F8002003F00603D7
:10430000042B08BFAD1AA36822690CBF25EAE57526
:1043100000259342C4BF9B1AED184FF000091A34D0
:104320004D451BD10020BDE8F08701235246394698
:104330003046C047013003D14FF0FF30BDE8F08771
:104340000135C2E7E1185A1C302081F843002244AD
:1043500094F8451082F843100233C4E70123224643
:1043600039463046C0470130E6D009F10109D7E7A8
:104370002DE9F04317460A7E85B06E2A9846064618
:104380000C460C9B01F1430E00F0BC801AD8632A46
:104390002ED00AD8002A00F0C880582A00F08A805F
:1043A00004F1420584F842202AE0642A01D0692AF7
:1043B000F6D121681A6811F0800F23D0111D196001
:1043C000136827E0732A00F0B48008D86F2A2AD037
:1043D000702AE5D10A6842F020020A6003E0752ADB
:1043E00021D0782ADCD1782284F845206E4964E017
:1043F0001A6801F14205111D1960136884F84230F2
:104400000123A3E011F0400F02F104011960D7D09D
:10441000B2F90030002B03DA2D225B4284F84320EE
:1044200062490A2217E02068196810F0800F03D053
:10443000081D18600B6806E010F0400F01F1040041
:104440001860F7D00B8859496F2A14BF0A22082236
:10445000002084F843006568A560002DC0F29C80B0
:10446000206820F004002060002B3FD1002D40F098
:1044700095807546082A0BD12368DA0708D5236989
:1044800062689A42DEBF302305F8013C05F1FF3532
:10449000AEEB05032361CDF800803B4603AA21461D
:1044A0003046FFF7EFFE013055D14FF0FF3005B039
:1044B000BDE8F08381F845203C492268186812F075
:1044C000800F00F104051D6001D0036802E055066D
:1044D000FBD50388D00744BF42F0200222601BB9FD
:1044E000226822F0200222601022B1E77546B3FB59
:1044F000F2F002FB1033CB5C05F8013D03460028C7
:10450000F5D1B7E708681A68496910F0800F04D040
:10451000101D18601368196007E010F0400F02F1D9
:10452000040018601368F6D01980002323617546D3
:10453000B1E71A68111D19601568626800212846E4
:10454000FBF746FE08B1401B6060636823610023EF
:1045500084F843309FE723692A4639463046C047EE
:104560000130A2D023689B0707D5002504F1190963
:10457000E368039A9B1A9D4205DBE068039B98421F
:10458000B8BF184693E701234A4639463046C0472C
:1045900001308AD00135EBE7002BA7D10B7884F8E6
:1045A000423004F1420565E7324C0008214C000816
:1045B00038B5064C0023054608462360FCF75CFA34
:1045C000431C02D1236803B12B6038BD7401002065
:1045D00010B50C46B1F90E1000F098FA0028ABBFE8
:1045E000636DA3891B1823F48053ACBF6365A3815B
:1045F00010BD2DE9F0411F468B89DB0505460C46B1
:10460000164605D502230022B1F90E1000F0B8F9C4
:10461000A389B4F90E1023F48053A38132463B469C
:104620002846BDE8F04100F069B810B50C46B1F974
:104630000E1000F0A5F9431CA38915BF606523F493
:10464000805343F48053A38118BFA38110BDB1F9F7
:104650000E1000F0D3B80000F8B50E46144605461B
:1046600018B183690BB9FFF7E5FB214B9C422AD1B6
:104670006C68A369A360A3891A072ED5236963B365
:1046800023692068C01A6369F6B29842374604DB92
:104690002146284600F04AF928BBA368013BA360E5
:1046A00023685A1C22601E7063690130984204D04E
:1046B000A389DB0719D50A2E17D12146284600F019
:1046C00035F990B10FE00B4B9C4201D1AC68D0E7BB
:1046D000094B9C4208BFEC68CBE72146284600F016
:1046E0001FF80028CCD04FF0FF373846F8BD00BF88
:1046F000D04B0008F04B0008B04B000838B5074C11
:10470000054608461146002222601A46FCF797F932
:10471000431C02D1236803B12B6038BD7401002013
:10472000324B70B51D6806460C4625B1AB6913B90E
:104730002846FFF77FFB2E4B9C420FD16C68B4F9E3
:104740000C309AB215072CD4D00611D4092232604D
:1047500043F04003A3814FF0FF3070BD254B9C42D6
:1047600001D1AC68EBE7244B9C4208BFEC68E6E75C
:10477000510712D5616B41B104F14403994202D053
:10478000304600F075F900236363A38923F0240306
:10479000A3810023636023692360A38943F0080396
:1047A000A38123694BB9A38903F42073B3F5007F78
:1047B00003D02146304600F019F9A28912F0010316
:1047C0000CD00023A36063695B42A361236953B9E2
:1047D000B4F90C3013F08000BAD170BD920758BF05
:1047E0006369A360F2E70020F7E700BF0C00002038
:1047F000D04B0008F04B0008B04B000838B5064C11
:104800000023054608462360FCF762F9431C02D1E9
:10481000236803B12B6038BD740100208A892DE91B
:10482000F041054610070C465AD44B68002B05DCB6
:104830000B6C002B02DC0020BDE8F081E66A002E44
:10484000F9D0002312F480522F682B6033D0606DB2
:10485000A3895A0705D56368C01A636B0BB1236C33
:10486000C01A00230246E66A216A2846B047431C64
:10487000A38906D129681D294BD82B4ACA40D607DF
:1048800047D500226260D9042269226004D5421C07
:1048900001D12B6803B96065616B2F600029CAD014
:1048A00004F14403994202D0284600F0E1F80020C8
:1048B0006063BDE8F081216A01232846B047411CAE
:1048C000C6D12B68002BC3D01D2B01D0162B01D1D4
:1048D0002F60B0E7A38943F04003A381BDE8F081D6
:1048E0000F69002FA7D093070E6808BF4B690F60B0
:1048F00018BF0023A6EB07088B60B8F1000F9ADD04
:1049000043463A46216AA66A2846B047002807DC93
:10491000A38943F04003A3814FF0FF30BDE8F0814D
:104920000744A8EB0008E8E70100402038B50B6910
:1049300005460C46DBB118B183690BB9FFF77AFA6B
:104940000C4B9C4209D16C68B4F90C307BB1214608
:104950002846BDE83840FFF761BF074B9C4201D1B4
:10496000AC68F1E7054B9C4208BFEC68ECE700201F
:1049700038BD00BFD04B0008F04B0008B04B00081A
:1049800038B5074C054608461146002222601A46F3
:10499000FCF7C5F8431C02D1236803B12B6038BD76
:1049A0007401002070B50E46B1F90E10002990B0C8
:1049B00014461D4607DA00232B60B3891A0610D46B
:1049C0004FF480630EE001AA00F0B2F80028F2DB99
:1049D000029A02F47042A2F500535A425A412A60E8
:1049E000EEE740230020236010B070BD8B8973B5C3
:1049F0009D0706460C4607D504F147032360236153
:104A00000123636102B070BD01AB6A46FFF7CAFFC4
:104A1000009905463046FFF797FA48B9B4F90C30CB
:104A20009A05EFD423F0030343F00203A381E3E7E5
:104A30000D4BB362A389206043F08003A381009BE8
:104A40006361019B20615BB1B4F90E10304600F048
:104A500081F828B1A38923F0030343F00103A38164
:104A6000A3891D43A581CDE7B53D00087047704778
:104A700038B50546002945D051F8043C0C1F002BE1
:104A8000B8BFE418FFF7F2FF1F4A1368104633B9A6
:104A9000636014602846BDE83840FFF7E8BFA342D2
:104AA0000CD921686218934204BF1A685B6863607E
:104AB00004BF521822600460ECE713465A680AB13A
:104AC000A242FAD919685818A0420BD120680144B3
:104AD000581882421960DDD1106852685A6001444A
:104AE0001960D7E702D90C232B60D3E7206821187F
:104AF0008A4204BF11685268626004BF09182160CD
:104B00005C60C7E738BD00BF9000002038B5074C97
:104B1000054608461146002222601A46FBF772FF3E
:104B2000431C02D1236803B12B6038BD74010020FF
:104B300038B5074C00230546084611462360FBF7AD
:104B4000D3FF431C02D1236803B12B6038BD00BFE3
:104B50007401002038B5064C002305460846236042
:104B6000FBF7D2FF431C02D1236803B12B6038BD91
:104B700074010020F8B500BFF8BC08BC9E46704721
:0C4B8000F8B500BFF8BC08BC9E467047AA
:104B8C0048656C6C6F000000000000000000000025
:104B9C0001020304060708090000000001020304D7
:104BAC0010000020000000000000000000000000C9
:104BBC0000000000000000000000000000000000E9
:104BCC0000000000000000000000000000000000D9
:104BDC0000000000000000000000000000000000C9
:104BEC0000000000000000000000000000000000B9
:104BFC0000000000000000000000000000000000A9
:104C0C0000000000232D302B2000686C4C006566E2
:104C1C006745464700303132333435363738394101
:104C2C004243444546003031323334353637383917
:084C3C0061626364656600001B
:084C44005CB6FF7F01000000D7
:044C4C00B5010008A6
:044C500091010008C6
:104C54000024F400100000000100000010000020F7
:104C640000000000D04B0008F04B0008B04B0008D7
:104C74000000000000000000000000000000000030
:104C84000000000000000000000000000000000020
:104C94000000000000000000000000000000000010
:104CA4000000000000000000000000000000000000
:104CB40000000000000000000000000000000000F0
:0400000508003CCDE6
:00000001FF
